{
  "_format": "hh-sol-artifact-1",
  "contractName": "CourseManager",
  "sourceName": "contracts/CourseManager.sol",
  "abi": [
    {
      "inputs": [
        {
          "internalType": "address",
          "name": "ydToken",
          "type": "address"
        }
      ],
      "stateMutability": "nonpayable",
      "type": "constructor"
    },
    {
      "inputs": [
        {
          "internalType": "address",
          "name": "owner",
          "type": "address"
        }
      ],
      "name": "OwnableInvalidOwner",
      "type": "error"
    },
    {
      "inputs": [
        {
          "internalType": "address",
          "name": "account",
          "type": "address"
        }
      ],
      "name": "OwnableUnauthorizedAccount",
      "type": "error"
    },
    {
      "anonymous": false,
      "inputs": [
        {
          "indexed": false,
          "internalType": "string",
          "name": "id",
          "type": "string"
        },
        {
          "indexed": true,
          "internalType": "address",
          "name": "author",
          "type": "address"
        }
      ],
      "name": "CourseCreated",
      "type": "event"
    },
    {
      "anonymous": false,
      "inputs": [
        {
          "indexed": false,
          "internalType": "string",
          "name": "id",
          "type": "string"
        },
        {
          "indexed": true,
          "internalType": "address",
          "name": "buyer",
          "type": "address"
        },
        {
          "indexed": false,
          "internalType": "uint256",
          "name": "priceYD",
          "type": "uint256"
        }
      ],
      "name": "CoursePurchased",
      "type": "event"
    },
    {
      "anonymous": false,
      "inputs": [
        {
          "indexed": true,
          "internalType": "address",
          "name": "previousOwner",
          "type": "address"
        },
        {
          "indexed": true,
          "internalType": "address",
          "name": "newOwner",
          "type": "address"
        }
      ],
      "name": "OwnershipTransferred",
      "type": "event"
    },
    {
      "anonymous": false,
      "inputs": [
        {
          "indexed": false,
          "internalType": "uint256",
          "name": "weiPerYD",
          "type": "uint256"
        }
      ],
      "name": "RateUpdated",
      "type": "event"
    },
    {
      "anonymous": false,
      "inputs": [
        {
          "indexed": true,
          "internalType": "address",
          "name": "buyer",
          "type": "address"
        },
        {
          "indexed": false,
          "internalType": "uint256",
          "name": "ethAmount",
          "type": "uint256"
        },
        {
          "indexed": false,
          "internalType": "uint256",
          "name": "ydAmount",
          "type": "uint256"
        }
      ],
      "name": "YDBought",
      "type": "event"
    },
    {
      "inputs": [
        {
          "internalType": "string",
          "name": "id",
          "type": "string"
        },
        {
          "internalType": "address",
          "name": "author",
          "type": "address"
        },
        {
          "internalType": "uint256",
          "name": "priceYD",
          "type": "uint256"
        }
      ],
      "name": "buyWithYD",
      "outputs": [],
      "stateMutability": "nonpayable",
      "type": "function"
    },
    {
      "inputs": [],
      "name": "buyYD",
      "outputs": [],
      "stateMutability": "payable",
      "type": "function"
    },
    {
      "inputs": [
        {
          "internalType": "string",
          "name": "id",
          "type": "string"
        }
      ],
      "name": "createCourse",
      "outputs": [],
      "stateMutability": "nonpayable",
      "type": "function"
    },
    {
      "inputs": [],
      "name": "exchangeRateEthPerYD",
      "outputs": [
        {
          "internalType": "uint256",
          "name": "",
          "type": "uint256"
        }
      ],
      "stateMutability": "view",
      "type": "function"
    },
    {
      "inputs": [
        {
          "internalType": "address",
          "name": "user",
          "type": "address"
        },
        {
          "internalType": "string",
          "name": "id",
          "type": "string"
        }
      ],
      "name": "isPurchased",
      "outputs": [
        {
          "internalType": "bool",
          "name": "",
          "type": "bool"
        }
      ],
      "stateMutability": "view",
      "type": "function"
    },
    {
      "inputs": [],
      "name": "nextId",
      "outputs": [
        {
          "internalType": "uint256",
          "name": "",
          "type": "uint256"
        }
      ],
      "stateMutability": "view",
      "type": "function"
    },
    {
      "inputs": [],
      "name": "owner",
      "outputs": [
        {
          "internalType": "address",
          "name": "",
          "type": "address"
        }
      ],
      "stateMutability": "view",
      "type": "function"
    },
    {
      "inputs": [
        {
          "internalType": "string",
          "name": "",
          "type": "string"
        },
        {
          "internalType": "address",
          "name": "",
          "type": "address"
        }
      ],
      "name": "purchased",
      "outputs": [
        {
          "internalType": "bool",
          "name": "",
          "type": "bool"
        }
      ],
      "stateMutability": "view",
      "type": "function"
    },
    {
      "inputs": [],
      "name": "renounceOwnership",
      "outputs": [],
      "stateMutability": "nonpayable",
      "type": "function"
    },
    {
      "inputs": [
        {
          "internalType": "uint256",
          "name": "weiPerYD",
          "type": "uint256"
        }
      ],
      "name": "setEthPerYDRate",
      "outputs": [],
      "stateMutability": "nonpayable",
      "type": "function"
    },
    {
      "inputs": [
        {
          "internalType": "address",
          "name": "newOwner",
          "type": "address"
        }
      ],
      "name": "transferOwnership",
      "outputs": [],
      "stateMutability": "nonpayable",
      "type": "function"
    },
    {
      "inputs": [],
      "name": "yd",
      "outputs": [
        {
          "internalType": "contract IERC20",
          "name": "",
          "type": "address"
        }
      ],
      "stateMutability": "view",
      "type": "function"
    }
  ],
  "bytecode": "0x60a0604052600160025534801561001557600080fd5b506040516110b13803806110b1833981016040819052610034916100d0565b338061005a57604051631e4fbdf760e01b81526000600482015260240160405180910390fd5b61006381610080565b506001600160a01b031660805266038d7ea4c68000600155610100565b600080546001600160a01b038381166001600160a01b0319831681178455604051919092169283917f8be0079c531659141344cd1fd0a4f28419497f9722a3daafe3b4186f6b6457e09190a35050565b6000602082840312156100e257600080fd5b81516001600160a01b03811681146100f957600080fd5b9392505050565b608051610f7361013e600039600081816102130152818161034001528181610431015281816105f8015281816106ff01526107d70152610f736000f3fe6080604052600436106100a75760003560e01c806384b267001161006457806384b26700146101a75780638a38ab2c146101af5780638da5cb5b146101cf57806394abdd4914610201578063bb63fe1214610235578063f2fde38b1461024b57600080fd5b806303589ca9146100ac57806310756645146100ce5780634abd6675146100ee578063575c68821461012357806361b8ce8c1461016e578063715018a614610192575b600080fd5b3480156100b857600080fd5b506100cc6100c7366004610ab9565b61026b565b005b3480156100da57600080fd5b506100cc6100e9366004610b37565b6102ae565b3480156100fa57600080fd5b5061010e610109366004610b93565b61055e565b60405190151581526020015b60405180910390f35b34801561012f57600080fd5b5061010e61013e366004610bfc565b81516020818401810180516003825292820194820194909420919093529091526000908152604090205460ff1681565b34801561017a57600080fd5b5061018460025481565b60405190815260200161011a565b34801561019e57600080fd5b506100cc6105a5565b6100cc6105b9565b3480156101bb57600080fd5b506100cc6101ca366004610cbe565b61097f565b3480156101db57600080fd5b506000546001600160a01b03165b6040516001600160a01b03909116815260200161011a565b34801561020d57600080fd5b506101e97f000000000000000000000000000000000000000000000000000000000000000081565b34801561024157600080fd5b5061018460015481565b34801561025757600080fd5b506100cc610266366004610d00565b6109fe565b610273610a3c565b60018190556040518181527fe65c987b2e4668e09ba867026921588005b2b2063607a1e7e7d91683c8f91b7b9060200160405180910390a150565b600384846040516102c0929190610d22565b9081526040805160209281900383019020336000908152925290205460ff16156103225760405162461bcd60e51b815260206004820152600e60248201526d185b1c9958591e48189bdd59da1d60921b60448201526064015b60405180910390fd5b604051636eb1769f60e11b81523360048201523060248201526000907f00000000000000000000000000000000000000000000000000000000000000006001600160a01b03169063dd62ed3e90604401602060405180830381865afa15801561038f573d6000803e3d6000fd5b505050506040513d601f19601f820116820180604052508101906103b39190610d32565b9050818110156104055760405162461bcd60e51b815260206004820152601960248201527f496e73756666696369656e7420594420616c6c6f77616e6365000000000000006044820152606401610319565b6040516323b872dd60e01b81523360048201526001600160a01b038481166024830152604482018490527f000000000000000000000000000000000000000000000000000000000000000016906323b872dd906064016020604051808303816000875af115801561047a573d6000803e3d6000fd5b505050506040513d601f19601f8201168201806040525081019061049e9190610d4b565b6104da5760405162461bcd60e51b815260206004820152600d60248201526c1d1c985b9cd9995c8819985a5b609a1b6044820152606401610319565b6001600386866040516104ee929190610d22565b90815260408051602092819003830181203360008181529190945291909120805460ff191693151593909317909255907f716e6395af1503b6908e71b25e3456736b92afb151fd68f910dac3558c2a394d9061054f90889088908790610d96565b60405180910390a25050505050565b600060038383604051610572929190610d22565b908152604080519182900360209081019092206001600160a01b0387166000908152925290205460ff1690509392505050565b6105ad610a3c565b6105b76000610a69565b565b600034116105f45760405162461bcd60e51b81526020600482015260086024820152670a6cadcc8408aa8960c31b6044820152606401610319565b60007f00000000000000000000000000000000000000000000000000000000000000006001600160a01b031663313ce5676040518163ffffffff1660e01b8152600401602060405180830381865afa158015610654573d6000803e3d6000fd5b505050506040513d601f19601f820116820180604052508101906106789190610dba565b9050600060015482600a61068c9190610ed9565b6106969034610ee8565b6106a09190610eff565b9050600081116106e85760405162461bcd60e51b8152602060048201526013602482015272151bdbc81b1a5d1d1b1948115512081cd95b9d606a1b6044820152606401610319565b6040516370a0823160e01b815230600482015281907f00000000000000000000000000000000000000000000000000000000000000006001600160a01b0316906370a0823190602401602060405180830381865afa15801561074e573d6000803e3d6000fd5b505050506040513d601f19601f820116820180604052508101906107729190610d32565b10156107b85760405162461bcd60e51b8152602060048201526015602482015274139bdd08195b9bdd59da081651081a5b881c1bdbdb605a1b6044820152606401610319565b60405163a9059cbb60e01b8152336004820152602481018290526000907f00000000000000000000000000000000000000000000000000000000000000006001600160a01b03169063a9059cbb906044016020604051808303816000875af1158015610828573d6000803e3d6000fd5b505050506040513d601f19601f8201168201806040525081019061084c9190610d4b565b90508061089b5760405162461bcd60e51b815260206004820152601a60248201527f5944207472616e7366657220746f2075736572206661696c65640000000000006044820152606401610319565b600080546040516001600160a01b039091169034908381818185875af1925050503d80600081146108e8576040519150601f19603f3d011682016040523d82523d6000602084013e6108ed565b606091505b505090508061093e5760405162461bcd60e51b815260206004820152601c60248201527f455448207472616e7366657220746f206f776e6572206661696c6564000000006044820152606401610319565b604080513481526020810185905233917f32249443d15e9dc82e8672dabc467a62f54f82a40a598aa99f297180704f7c15910160405180910390a250505050565b600160038383604051610993929190610d22565b90815260408051602092819003830181203360008181529190945291909120805460ff191693151593909317909255907f1572805fad0d4af3935039ee37aa9e464b7ac60ef74e893f127eb10c4006ed4c906109f29085908590610f21565b60405180910390a25050565b610a06610a3c565b6001600160a01b038116610a3057604051631e4fbdf760e01b815260006004820152602401610319565b610a3981610a69565b50565b6000546001600160a01b031633146105b75760405163118cdaa760e01b8152336004820152602401610319565b600080546001600160a01b038381166001600160a01b0319831681178455604051919092169283917f8be0079c531659141344cd1fd0a4f28419497f9722a3daafe3b4186f6b6457e09190a35050565b600060208284031215610acb57600080fd5b5035919050565b60008083601f840112610ae457600080fd5b50813567ffffffffffffffff811115610afc57600080fd5b602083019150836020828501011115610b1457600080fd5b9250929050565b80356001600160a01b0381168114610b3257600080fd5b919050565b60008060008060608587031215610b4d57600080fd5b843567ffffffffffffffff811115610b6457600080fd5b610b7087828801610ad2565b9095509350610b83905060208601610b1b565b9396929550929360400135925050565b600080600060408486031215610ba857600080fd5b610bb184610b1b565b9250602084013567ffffffffffffffff811115610bcd57600080fd5b610bd986828701610ad2565b9497909650939450505050565b634e487b7160e01b600052604160045260246000fd5b60008060408385031215610c0f57600080fd5b823567ffffffffffffffff80821115610c2757600080fd5b818501915085601f830112610c3b57600080fd5b813581811115610c4d57610c4d610be6565b604051601f8201601f19908116603f01168101908382118183101715610c7557610c75610be6565b81604052828152886020848701011115610c8e57600080fd5b826020860160208301376000602084830101528096505050505050610cb560208401610b1b565b90509250929050565b60008060208385031215610cd157600080fd5b823567ffffffffffffffff811115610ce857600080fd5b610cf485828601610ad2565b90969095509350505050565b600060208284031215610d1257600080fd5b610d1b82610b1b565b9392505050565b8183823760009101908152919050565b600060208284031215610d4457600080fd5b5051919050565b600060208284031215610d5d57600080fd5b81518015158114610d1b57600080fd5b81835281816020850137506000828201602090810191909152601f909101601f19169091010190565b604081526000610daa604083018587610d6d565b9050826020830152949350505050565b600060208284031215610dcc57600080fd5b815160ff81168114610d1b57600080fd5b634e487b7160e01b600052601160045260246000fd5b600181815b80851115610e2e578160001904821115610e1457610e14610ddd565b80851615610e2157918102915b93841c9390800290610df8565b509250929050565b600082610e4557506001610ed3565b81610e5257506000610ed3565b8160018114610e685760028114610e7257610e8e565b6001915050610ed3565b60ff841115610e8357610e83610ddd565b50506001821b610ed3565b5060208310610133831016604e8410600b8410161715610eb1575081810a610ed3565b610ebb8383610df3565b8060001904821115610ecf57610ecf610ddd565b0290505b92915050565b6000610d1b60ff841683610e36565b8082028115828204841417610ed357610ed3610ddd565b600082610f1c57634e487b7160e01b600052601260045260246000fd5b500490565b602081526000610f35602083018486610d6d565b94935050505056fea26469706673582212202dddcacad5335342c6dff2bd7afe2565a8abac96e87eec2dbf9d60138d7ac30d64736f6c63430008180033",
  "linkReferences": {},
  "deployedLinkReferences": {}
}