{
  "_format": "hh-sol-artifact-1",
  "contractName": "CourseManager",
  "sourceName": "contracts/CourseManager.sol",
  "abi": [
    {
      "inputs": [
        {
          "internalType": "address",
          "name": "ydToken",
          "type": "address"
        }
      ],
      "stateMutability": "nonpayable",
      "type": "constructor"
    },
    {
      "inputs": [
        {
          "internalType": "address",
          "name": "owner",
          "type": "address"
        }
      ],
      "name": "OwnableInvalidOwner",
      "type": "error"
    },
    {
      "inputs": [
        {
          "internalType": "address",
          "name": "account",
          "type": "address"
        }
      ],
      "name": "OwnableUnauthorizedAccount",
      "type": "error"
    },
    {
      "anonymous": false,
      "inputs": [
        {
          "indexed": false,
          "internalType": "string",
          "name": "id",
          "type": "string"
        },
        {
          "indexed": true,
          "internalType": "address",
          "name": "author",
          "type": "address"
        }
      ],
      "name": "CourseCreated",
      "type": "event"
    },
    {
      "anonymous": false,
      "inputs": [
        {
          "indexed": false,
          "internalType": "string",
          "name": "id",
          "type": "string"
        },
        {
          "indexed": true,
          "internalType": "address",
          "name": "buyer",
          "type": "address"
        },
        {
          "indexed": false,
          "internalType": "uint256",
          "name": "priceYD",
          "type": "uint256"
        }
      ],
      "name": "CoursePurchased",
      "type": "event"
    },
    {
      "anonymous": false,
      "inputs": [
        {
          "indexed": true,
          "internalType": "address",
          "name": "previousOwner",
          "type": "address"
        },
        {
          "indexed": true,
          "internalType": "address",
          "name": "newOwner",
          "type": "address"
        }
      ],
      "name": "OwnershipTransferred",
      "type": "event"
    },
    {
      "anonymous": false,
      "inputs": [
        {
          "indexed": false,
          "internalType": "uint256",
          "name": "weiPerYD",
          "type": "uint256"
        }
      ],
      "name": "RateUpdated",
      "type": "event"
    },
    {
      "inputs": [
        {
          "internalType": "string",
          "name": "id",
          "type": "string"
        },
        {
          "internalType": "address",
          "name": "author",
          "type": "address"
        },
        {
          "internalType": "uint256",
          "name": "priceYD",
          "type": "uint256"
        }
      ],
      "name": "buyWithYD",
      "outputs": [],
      "stateMutability": "nonpayable",
      "type": "function"
    },
    {
      "inputs": [],
      "name": "buyYD",
      "outputs": [],
      "stateMutability": "payable",
      "type": "function"
    },
    {
      "inputs": [
        {
          "internalType": "string",
          "name": "id",
          "type": "string"
        }
      ],
      "name": "createCourse",
      "outputs": [],
      "stateMutability": "nonpayable",
      "type": "function"
    },
    {
      "inputs": [],
      "name": "exchangeRateEthPerYD",
      "outputs": [
        {
          "internalType": "uint256",
          "name": "",
          "type": "uint256"
        }
      ],
      "stateMutability": "view",
      "type": "function"
    },
    {
      "inputs": [
        {
          "internalType": "address",
          "name": "user",
          "type": "address"
        },
        {
          "internalType": "string",
          "name": "id",
          "type": "string"
        }
      ],
      "name": "isPurchased",
      "outputs": [
        {
          "internalType": "bool",
          "name": "",
          "type": "bool"
        }
      ],
      "stateMutability": "view",
      "type": "function"
    },
    {
      "inputs": [],
      "name": "nextId",
      "outputs": [
        {
          "internalType": "uint256",
          "name": "",
          "type": "uint256"
        }
      ],
      "stateMutability": "view",
      "type": "function"
    },
    {
      "inputs": [],
      "name": "owner",
      "outputs": [
        {
          "internalType": "address",
          "name": "",
          "type": "address"
        }
      ],
      "stateMutability": "view",
      "type": "function"
    },
    {
      "inputs": [
        {
          "internalType": "string",
          "name": "",
          "type": "string"
        },
        {
          "internalType": "address",
          "name": "",
          "type": "address"
        }
      ],
      "name": "purchased",
      "outputs": [
        {
          "internalType": "bool",
          "name": "",
          "type": "bool"
        }
      ],
      "stateMutability": "view",
      "type": "function"
    },
    {
      "inputs": [],
      "name": "renounceOwnership",
      "outputs": [],
      "stateMutability": "nonpayable",
      "type": "function"
    },
    {
      "inputs": [
        {
          "internalType": "uint256",
          "name": "weiPerYD",
          "type": "uint256"
        }
      ],
      "name": "setEthPerYDRate",
      "outputs": [],
      "stateMutability": "nonpayable",
      "type": "function"
    },
    {
      "inputs": [
        {
          "internalType": "address",
          "name": "newOwner",
          "type": "address"
        }
      ],
      "name": "transferOwnership",
      "outputs": [],
      "stateMutability": "nonpayable",
      "type": "function"
    },
    {
      "inputs": [],
      "name": "yd",
      "outputs": [
        {
          "internalType": "contract IERC20",
          "name": "",
          "type": "address"
        }
      ],
      "stateMutability": "view",
      "type": "function"
    }
  ],
  "bytecode": "0x60a0604052600160025534801561001557600080fd5b50604051610ca4380380610ca4833981016040819052610034916100d0565b338061005a57604051631e4fbdf760e01b81526000600482015260240160405180910390fd5b61006381610080565b506001600160a01b031660805266038d7ea4c68000600155610100565b600080546001600160a01b038381166001600160a01b0319831681178455604051919092169283917f8be0079c531659141344cd1fd0a4f28419497f9722a3daafe3b4186f6b6457e09190a35050565b6000602082840312156100e257600080fd5b81516001600160a01b03811681146100f957600080fd5b9392505050565b608051610b74610130600039600081816102130152818161034e0152818161055401526106210152610b746000f3fe6080604052600436106100a75760003560e01c806384b267001161006457806384b26700146101a75780638a38ab2c146101af5780638da5cb5b146101cf57806394abdd4914610201578063bb63fe1214610235578063f2fde38b1461024b57600080fd5b806303589ca9146100ac57806310756645146100ce5780634abd6675146100ee578063575c68821461012357806361b8ce8c1461016e578063715018a614610192575b600080fd5b3480156100b857600080fd5b506100cc6100c73660046107d4565b61026b565b005b3480156100da57600080fd5b506100cc6100e9366004610852565b6102ae565b3480156100fa57600080fd5b5061010e6101093660046108ae565b61047a565b60405190151581526020015b60405180910390f35b34801561012f57600080fd5b5061010e61013e366004610917565b81516020818401810180516003825292820194820194909420919093529091526000908152604090205460ff1681565b34801561017a57600080fd5b5061018460025481565b60405190815260200161011a565b34801561019e57600080fd5b506100cc6104c1565b6100cc6104d5565b3480156101bb57600080fd5b506100cc6101ca3660046109d9565b61069a565b3480156101db57600080fd5b506000546001600160a01b03165b6040516001600160a01b03909116815260200161011a565b34801561020d57600080fd5b506101e97f000000000000000000000000000000000000000000000000000000000000000081565b34801561024157600080fd5b5061018460015481565b34801561025757600080fd5b506100cc610266366004610a1b565b610719565b610273610757565b60018190556040518181527fe65c987b2e4668e09ba867026921588005b2b2063607a1e7e7d91683c8f91b7b9060200160405180910390a150565b600384846040516102c0929190610a3d565b9081526040805160209281900383019020336000908152925290205460ff16156103225760405162461bcd60e51b815260206004820152600e60248201526d185b1c9958591e48189bdd59da1d60921b60448201526064015b60405180910390fd5b6040516323b872dd60e01b81523360048201526001600160a01b038381166024830152604482018390527f000000000000000000000000000000000000000000000000000000000000000016906323b872dd906064016020604051808303816000875af1158015610397573d6000803e3d6000fd5b505050506040513d601f19601f820116820180604052508101906103bb9190610a4d565b6103f75760405162461bcd60e51b815260206004820152600d60248201526c1d1c985b9cd9995c8819985a5b609a1b6044820152606401610319565b60016003858560405161040b929190610a3d565b90815260408051602092819003830181203360008181529190945291909120805460ff191693151593909317909255907f716e6395af1503b6908e71b25e3456736b92afb151fd68f910dac3558c2a394d9061046c90879087908690610a98565b60405180910390a250505050565b60006003838360405161048e929190610a3d565b908152604080519182900360209081019092206001600160a01b0387166000908152925290205460ff1690509392505050565b6104c9610757565b6104d36000610784565b565b600034116105105760405162461bcd60e51b81526020600482015260086024820152670a6cadcc8408aa8960c31b6044820152606401610319565b60015460009061052834670de0b6b3a7640000610abc565b6105329190610ae7565b6040516370a0823160e01b815230600482015290915081906001600160a01b037f000000000000000000000000000000000000000000000000000000000000000016906370a0823190602401602060405180830381865afa15801561059b573d6000803e3d6000fd5b505050506040513d601f19601f820116820180604052508101906105bf9190610b09565b10156106055760405162461bcd60e51b8152602060048201526015602482015274139bdd08195b9bdd59da081651081a5b881c1bdbdb605a1b6044820152606401610319565b60405163a9059cbb60e01b8152336004820152602481018290527f00000000000000000000000000000000000000000000000000000000000000006001600160a01b03169063a9059cbb906044016020604051808303816000875af1158015610672573d6000803e3d6000fd5b505050506040513d601f19601f820116820180604052508101906106969190610a4d565b5050565b6001600383836040516106ae929190610a3d565b90815260408051602092819003830181203360008181529190945291909120805460ff191693151593909317909255907f1572805fad0d4af3935039ee37aa9e464b7ac60ef74e893f127eb10c4006ed4c9061070d9085908590610b22565b60405180910390a25050565b610721610757565b6001600160a01b03811661074b57604051631e4fbdf760e01b815260006004820152602401610319565b61075481610784565b50565b6000546001600160a01b031633146104d35760405163118cdaa760e01b8152336004820152602401610319565b600080546001600160a01b038381166001600160a01b0319831681178455604051919092169283917f8be0079c531659141344cd1fd0a4f28419497f9722a3daafe3b4186f6b6457e09190a35050565b6000602082840312156107e657600080fd5b5035919050565b60008083601f8401126107ff57600080fd5b50813567ffffffffffffffff81111561081757600080fd5b60208301915083602082850101111561082f57600080fd5b9250929050565b80356001600160a01b038116811461084d57600080fd5b919050565b6000806000806060858703121561086857600080fd5b843567ffffffffffffffff81111561087f57600080fd5b61088b878288016107ed565b909550935061089e905060208601610836565b9396929550929360400135925050565b6000806000604084860312156108c357600080fd5b6108cc84610836565b9250602084013567ffffffffffffffff8111156108e857600080fd5b6108f4868287016107ed565b9497909650939450505050565b634e487b7160e01b600052604160045260246000fd5b6000806040838503121561092a57600080fd5b823567ffffffffffffffff8082111561094257600080fd5b818501915085601f83011261095657600080fd5b81358181111561096857610968610901565b604051601f8201601f19908116603f0116810190838211818310171561099057610990610901565b816040528281528860208487010111156109a957600080fd5b8260208601602083013760006020848301015280965050505050506109d060208401610836565b90509250929050565b600080602083850312156109ec57600080fd5b823567ffffffffffffffff811115610a0357600080fd5b610a0f858286016107ed565b90969095509350505050565b600060208284031215610a2d57600080fd5b610a3682610836565b9392505050565b8183823760009101908152919050565b600060208284031215610a5f57600080fd5b81518015158114610a3657600080fd5b81835281816020850137506000828201602090810191909152601f909101601f19169091010190565b604081526000610aac604083018587610a6f565b9050826020830152949350505050565b8082028115828204841417610ae157634e487b7160e01b600052601160045260246000fd5b92915050565b600082610b0457634e487b7160e01b600052601260045260246000fd5b500490565b600060208284031215610b1b57600080fd5b5051919050565b602081526000610b36602083018486610a6f565b94935050505056fea26469706673582212208340972e811781cc28cbe2a73ab3bc24bfa1024842ce325e9040fc9e28754aca64736f6c63430008180033",
  "linkReferences": {},
  "deployedLinkReferences": {}
}