{
  "_format": "hh3-artifact-1",
  "contractName": "MetaCoin",
  "sourceName": "contracts/MetaCoin.sol",
  "abi": [
    {
      "inputs": [],
      "stateMutability": "nonpayable",
      "type": "constructor"
    },
    {
      "inputs": [
        {
          "internalType": "address",
          "name": "spender",
          "type": "address"
        },
        {
          "internalType": "uint256",
          "name": "allowance",
          "type": "uint256"
        },
        {
          "internalType": "uint256",
          "name": "needed",
          "type": "uint256"
        }
      ],
      "name": "ERC20InsufficientAllowance",
      "type": "error"
    },
    {
      "inputs": [
        {
          "internalType": "address",
          "name": "sender",
          "type": "address"
        },
        {
          "internalType": "uint256",
          "name": "balance",
          "type": "uint256"
        },
        {
          "internalType": "uint256",
          "name": "needed",
          "type": "uint256"
        }
      ],
      "name": "ERC20InsufficientBalance",
      "type": "error"
    },
    {
      "inputs": [
        {
          "internalType": "address",
          "name": "approver",
          "type": "address"
        }
      ],
      "name": "ERC20InvalidApprover",
      "type": "error"
    },
    {
      "inputs": [
        {
          "internalType": "address",
          "name": "receiver",
          "type": "address"
        }
      ],
      "name": "ERC20InvalidReceiver",
      "type": "error"
    },
    {
      "inputs": [
        {
          "internalType": "address",
          "name": "sender",
          "type": "address"
        }
      ],
      "name": "ERC20InvalidSender",
      "type": "error"
    },
    {
      "inputs": [
        {
          "internalType": "address",
          "name": "spender",
          "type": "address"
        }
      ],
      "name": "ERC20InvalidSpender",
      "type": "error"
    },
    {
      "anonymous": false,
      "inputs": [
        {
          "indexed": true,
          "internalType": "address",
          "name": "owner",
          "type": "address"
        },
        {
          "indexed": true,
          "internalType": "address",
          "name": "spender",
          "type": "address"
        },
        {
          "indexed": false,
          "internalType": "uint256",
          "name": "value",
          "type": "uint256"
        }
      ],
      "name": "Approval",
      "type": "event"
    },
    {
      "anonymous": false,
      "inputs": [
        {
          "indexed": true,
          "internalType": "address",
          "name": "from",
          "type": "address"
        },
        {
          "indexed": true,
          "internalType": "address",
          "name": "to",
          "type": "address"
        },
        {
          "indexed": false,
          "internalType": "uint256",
          "name": "value",
          "type": "uint256"
        }
      ],
      "name": "Transfer",
      "type": "event"
    },
    {
      "inputs": [],
      "name": "INITIAL_SUPPLY",
      "outputs": [
        {
          "internalType": "uint256",
          "name": "",
          "type": "uint256"
        }
      ],
      "stateMutability": "view",
      "type": "function"
    },
    {
      "inputs": [],
      "name": "NAME",
      "outputs": [
        {
          "internalType": "string",
          "name": "",
          "type": "string"
        }
      ],
      "stateMutability": "view",
      "type": "function"
    },
    {
      "inputs": [],
      "name": "SYMBOL",
      "outputs": [
        {
          "internalType": "string",
          "name": "",
          "type": "string"
        }
      ],
      "stateMutability": "view",
      "type": "function"
    },
    {
      "inputs": [
        {
          "internalType": "address",
          "name": "owner",
          "type": "address"
        },
        {
          "internalType": "address",
          "name": "spender",
          "type": "address"
        }
      ],
      "name": "allowance",
      "outputs": [
        {
          "internalType": "uint256",
          "name": "",
          "type": "uint256"
        }
      ],
      "stateMutability": "view",
      "type": "function"
    },
    {
      "inputs": [
        {
          "internalType": "address",
          "name": "spender",
          "type": "address"
        },
        {
          "internalType": "uint256",
          "name": "value",
          "type": "uint256"
        }
      ],
      "name": "approve",
      "outputs": [
        {
          "internalType": "bool",
          "name": "",
          "type": "bool"
        }
      ],
      "stateMutability": "nonpayable",
      "type": "function"
    },
    {
      "inputs": [
        {
          "internalType": "address",
          "name": "account",
          "type": "address"
        }
      ],
      "name": "balanceOf",
      "outputs": [
        {
          "internalType": "uint256",
          "name": "",
          "type": "uint256"
        }
      ],
      "stateMutability": "view",
      "type": "function"
    },
    {
      "inputs": [],
      "name": "decimals",
      "outputs": [
        {
          "internalType": "uint8",
          "name": "",
          "type": "uint8"
        }
      ],
      "stateMutability": "view",
      "type": "function"
    },
    {
      "inputs": [],
      "name": "name",
      "outputs": [
        {
          "internalType": "string",
          "name": "",
          "type": "string"
        }
      ],
      "stateMutability": "view",
      "type": "function"
    },
    {
      "inputs": [],
      "name": "symbol",
      "outputs": [
        {
          "internalType": "string",
          "name": "",
          "type": "string"
        }
      ],
      "stateMutability": "view",
      "type": "function"
    },
    {
      "inputs": [],
      "name": "totalSupply",
      "outputs": [
        {
          "internalType": "uint256",
          "name": "",
          "type": "uint256"
        }
      ],
      "stateMutability": "view",
      "type": "function"
    },
    {
      "inputs": [
        {
          "internalType": "address",
          "name": "to",
          "type": "address"
        },
        {
          "internalType": "uint256",
          "name": "value",
          "type": "uint256"
        }
      ],
      "name": "transfer",
      "outputs": [
        {
          "internalType": "bool",
          "name": "",
          "type": "bool"
        }
      ],
      "stateMutability": "nonpayable",
      "type": "function"
    },
    {
      "inputs": [
        {
          "internalType": "address",
          "name": "from",
          "type": "address"
        },
        {
          "internalType": "address",
          "name": "to",
          "type": "address"
        },
        {
          "internalType": "uint256",
          "name": "value",
          "type": "uint256"
        }
      ],
      "name": "transferFrom",
      "outputs": [
        {
          "internalType": "bool",
          "name": "",
          "type": "bool"
        }
      ],
      "stateMutability": "nonpayable",
      "type": "function"
    }
  ],
  "bytecode": "0x608060405234801561000f575f5ffd5b506040518060400160405280601081526020016f2cb4b232b733a2a92199182a37b5b2b760811b81525060405180604001604052806002815260200161165160f21b81525081600390816100639190610285565b5060046100708282610285565b5050506100853361271061008a60201b60201c565b610364565b6001600160a01b0382166100b85760405163ec442f0560e01b81525f60048201526024015b60405180910390fd5b6100c35f83836100c7565b5050565b6001600160a01b0383166100f1578060025f8282546100e6919061033f565b909155506101619050565b6001600160a01b0383165f90815260208190526040902054818110156101435760405163391434e360e21b81526001600160a01b038516600482015260248101829052604481018390526064016100af565b6001600160a01b0384165f9081526020819052604090209082900390555b6001600160a01b03821661017d5760028054829003905561019b565b6001600160a01b0382165f9081526020819052604090208054820190555b816001600160a01b0316836001600160a01b03167fddf252ad1be2c89b69c2b068fc378daa952ba7f163c4a11628f55a4df523b3ef836040516101e091815260200190565b60405180910390a3505050565b634e487b7160e01b5f52604160045260245ffd5b600181811c9082168061021557607f821691505b60208210810361023357634e487b7160e01b5f52602260045260245ffd5b50919050565b601f82111561028057805f5260205f20601f840160051c8101602085101561025e5750805b601f840160051c820191505b8181101561027d575f815560010161026a565b50505b505050565b81516001600160401b0381111561029e5761029e6101ed565b6102b2816102ac8454610201565b84610239565b6020601f8211600181146102e4575f83156102cd5750848201515b5f19600385901b1c1916600184901b17845561027d565b5f84815260208120601f198516915b8281101561031357878501518255602094850194600190920191016102f3565b508482101561033057868401515f19600387901b60f8161c191681555b50505050600190811b01905550565b8082018082111561035e57634e487b7160e01b5f52601160045260245ffd5b92915050565b61075d806103715f395ff3fe608060405234801561000f575f5ffd5b50600436106100b1575f3560e01c806370a082311161006e57806370a082311461013257806395d89b411461015a578063a3f4df7e14610162578063a9059cbb14610191578063dd62ed3e146101a4578063f76f8d78146101dc575f5ffd5b806306fdde03146100b5578063095ea7b3146100d357806318160ddd146100f657806323b872dd146101085780632ff2e9dc1461011b578063313ce56714610124575b5f5ffd5b6100bd6101fd565b6040516100ca91906105cd565b60405180910390f35b6100e66100e136600461061d565b61028d565b60405190151581526020016100ca565b6002545b6040519081526020016100ca565b6100e6610116366004610645565b6102a6565b6100fa61271081565b6040515f81526020016100ca565b6100fa61014036600461067f565b6001600160a01b03165f9081526020819052604090205490565b6100bd6102c9565b6100bd6040518060400160405280601081526020016f2cb4b232b733a2a92199182a37b5b2b760811b81525081565b6100e661019f36600461061d565b6102d8565b6100fa6101b236600461069f565b6001600160a01b039182165f90815260016020908152604080832093909416825291909152205490565b6100bd60405180604001604052806002815260200161165160f21b81525081565b60606003805461020c906106d0565b80601f0160208091040260200160405190810160405280929190818152602001828054610238906106d0565b80156102835780601f1061025a57610100808354040283529160200191610283565b820191905f5260205f20905b81548152906001019060200180831161026657829003601f168201915b5050505050905090565b5f3361029a8185856102e5565b60019150505b92915050565b5f336102b38582856102f7565b6102be858585610378565b506001949350505050565b60606004805461020c906106d0565b5f3361029a818585610378565b6102f283838360016103d5565b505050565b6001600160a01b038381165f908152600160209081526040808320938616835292905220545f19811015610372578181101561036457604051637dc7a0d960e11b81526001600160a01b038416600482015260248101829052604481018390526064015b60405180910390fd5b61037284848484035f6103d5565b50505050565b6001600160a01b0383166103a157604051634b637e8f60e11b81525f600482015260240161035b565b6001600160a01b0382166103ca5760405163ec442f0560e01b81525f600482015260240161035b565b6102f28383836104a7565b6001600160a01b0384166103fe5760405163e602df0560e01b81525f600482015260240161035b565b6001600160a01b03831661042757604051634a1406b160e11b81525f600482015260240161035b565b6001600160a01b038085165f908152600160209081526040808320938716835292905220829055801561037257826001600160a01b0316846001600160a01b03167f8c5be1e5ebec7d5bd14f71427d1e84f3dd0314c0f7b2291e5b200ac8c7c3b9258460405161049991815260200190565b60405180910390a350505050565b6001600160a01b0383166104d1578060025f8282546104c69190610708565b909155506105419050565b6001600160a01b0383165f90815260208190526040902054818110156105235760405163391434e360e21b81526001600160a01b0385166004820152602481018290526044810183905260640161035b565b6001600160a01b0384165f9081526020819052604090209082900390555b6001600160a01b03821661055d5760028054829003905561057b565b6001600160a01b0382165f9081526020819052604090208054820190555b816001600160a01b0316836001600160a01b03167fddf252ad1be2c89b69c2b068fc378daa952ba7f163c4a11628f55a4df523b3ef836040516105c091815260200190565b60405180910390a3505050565b602081525f82518060208401528060208501604085015e5f604082850101526040601f19601f83011684010191505092915050565b80356001600160a01b0381168114610618575f5ffd5b919050565b5f5f6040838503121561062e575f5ffd5b61063783610602565b946020939093013593505050565b5f5f5f60608486031215610657575f5ffd5b61066084610602565b925061066e60208501610602565b929592945050506040919091013590565b5f6020828403121561068f575f5ffd5b61069882610602565b9392505050565b5f5f604083850312156106b0575f5ffd5b6106b983610602565b91506106c760208401610602565b90509250929050565b600181811c908216806106e457607f821691505b60208210810361070257634e487b7160e01b5f52602260045260245ffd5b50919050565b808201808211156102a057634e487b7160e01b5f52601160045260245ffdfea26469706673582212206bffc8180b1945a6cacc8d99c6935029589d86a22e2031a0f7d0a4cdcc1a6e2464736f6c634300081c0033",
  "linkReferences": {},
  "deployedLinkReferences": {},
  "immutableReferences": {},
  "inputSourceName": "project/contracts/MetaCoin.sol",
  "buildInfoId": "solc-0_8_28-139a0311d2cb24a9767504aed8a2df83648b4563"
}